:04000000DCEF5FF0E2
:10BE6C00828E8B8012008B9012001200F29C550E69
:0EBE7C00A76EAA0EA76E0F013F8BF28C12006C
:10BE8B0000C0411500080005000900080016000A53
:10BE9B000023001E001800C280C28200D0C2B2FE76
:10BEAB00D7FA0E00F0E82EFDD7C4CFB8F0C290122F
:10BEBB0000036E000E026E3A0E036006D02F0E03C7
:10BECB006403D0010E026E00D002C001F0013012EB
:10BEDB00001200015002100310D8B406D0000E015E
:10BEEB001A000E021A800E031A01C001F002C002E2
:10BEFB00F003C003F012000C6E0C50016E026A03CB
:10BF0B006A8E0E046E000E056EBEEC63F001C00966
:10BF1B00F002C00AF003C00BF0120012000F501118
:10BF2B0002F3CF13F0F4CF14F00F501202F35014AE
:10BF3B002610501102F350142613C00FF014C0102A
:10BF4B00F01200120052EC6BF051EC5FF0464A47D6
:10BF5B002A47BE1200475004E1090E465CD8A012D6
:10BF6B000021EC64F0000E476E000E466E120012BC
:10BF7B0000000E0C6E0AAE07D0096C0A1ED8B00A70
:10BF8B002A010E0C6E00D009C001F00AC002F003AA
:10BF9B006A8E0E046E0CC005F0BEEC63F001C00996
:10BFAB00F002C00AF003C00BF01200120001EE0009
:10BFBB00F0100EEE6AE806FDE100EE9CF03A0EEE94
:10BFCB006AE806FDE18B0EF66EBE0EF76E000EF8FC
:10BFDB006E00EED6F010EE17F00900F5CFEEFFE590
:10BFEB0050E150FAE1000EF86E0001BEEF60F03D3B
:10BFFB00503E103F10D8B407D0000E3D1A000E3E35
:10C00B001A800E3F1A00D03AC02EF03BC02FF03CE6
:10C01B00C030F03DC031F03EC032F03FC033F0468F
:10C02B00EC6EF02EC03AF02FC03BF030C03CF0125B
:10C03B000012008E0E116E07D0D8900C320B320A04
:10C04B00320932112A00D0000E09140D6E000E0AAF
:10C05B00140E6E000E0B140F6EFF0E0C14106E0DE3
:10C06B00500E100F101010D8A4E7D709C001F00A1A
:10C07B00C002F00BC003F011C004F0000E056EBE41
:10C08B00EC63F001C009F002C00AF003C00BF01220
:10C09B00001200FC0E0F013F170F013F8198CF0FCD
:10C0AB00F099CF10F098CF11F099CF12F0FC0E0F42
:10C0BB00013F170F013F8198CF07F099CF08F098F8
:10C0CB00CF09F099CF0AF009501118D8A4E2D72064
:10C0DB00EE03F00150D9260250DA220FC0DFFF2009
:10C0EB00EE02F00150D9260250DA2212C0DFFF20F7
:10C0FB00EE01F00150D9260250DA2211C0DFFF12F7
:10C10B00001250131014101510D8B429D0010E16AC
:10C11B006E07D0D8901236133614361536162A0001
:10C12B00D015BE02D0F6D700D012500E5C13500FB4
:10C13B00581450105815501158D8A009D012500E41
:10C14B005E13500F5A1450105A1550115A00D0D874
:10C15B00901532143213321232162EE6D700D00E4F
:10C16B00C00EF00FC00FF010C010F011C011F01284
:10C17B00009B8E9B9CD388D38AD38CD390D3920F66
:10C18B00013F8F0F013F8BCD867F0E926E000E937A
:10C19B006EFE0E946E0F014869F70E0F01496F2F5B
:10C1AB000EC26E390EC16E78EC6DF0B3EC67F00118
:10C1BB000E92EC66F00C0E92EC66F0000E0001AFE6
:10C1CB006F000EAE6F00D00001AE510001AF11D861
:10C1DB00B4F5EC6BF08CEC71F0820E00019B6FDE12
:10C1EB000EE82EFED79B2FFCD7EED700EF00F0000A
:10C1FB000E066E02AE07D0016C021ED8B0022A01E9
:10C20B000E066E00D004AE05D0036C041ED8B0042D
:10C21B002A00D003500410D8B41DD0010E056E05B2
:10C22B00D0D89003360436052A00D004BE02D0F8CD
:10C23B00D700D00350015C04500258D8A005D0039E
:10C24B0050015E0450025A00D0D8900432033205DC
:10C25B002EF0D700D00650D8B405D0016C021ED8F2
:10C26B00B0022A00D001C001F002C002F01200128D
:10C27B0000000E096E000E0A6E000E0B6E000E0C07
:10C28B006E0550061007100810D8B42FD0010E0DF4
:10C29B006E07D0D89005360636073608360D2A00BD
:10C2AB00D008BE02D0F6D700D0D89009360A360B8C
:10C2BB00360C360550015C065002580750035808DF
:10C2CB00500458D8A00AD00550015E0650025A07F8
:10C2DB0050035A0850045A098000D0D890083207EE
:10C2EB0032063205320D2EE0D700D009C001F00A1C
:10C2FB00C002F00BC003F00CC004F01200FC0E0FD8
:10C30B00013F17030E0F013F1398CF0BF099CF0C82
:10C31B00F098CF0DF099CF0EF098CF0FF099CF107A
:10C32B00F0FC0E0F013F17030E0F013F1398CF03C5
:10C33B00F099CF04F098CF05F099CF06F098CF077E
:10C34B00F099CF08F005500D18D8A4D8D720EE01DE
:10C35B00F00150D9260250DA220DC0DFFF20EE0289
:10C36B00F00150D9260250DA220EC0DFFF01C0D9EE
:10C37B00FF02C0DAFF10C0DFFF20EE03F00150D93F
:10C38B00260250DA220BC0DFFF1200076E0DD0041D
:10C39B0050800F08D00450C00F05D00450940F02EA
:10C3AB00D00450D40F086E0ED00750010AD8B4EF4A
:10C3BB00D7030AD8B4EFD7010AD8B4EFD7070AD8F6
:10C3CB00B4EFD700D0085092EC66F015D005C0F64C
:10C3DB00FF06C0F7FFF86A0E0EF76403D00800F5EE
:10C3EB005005D0F6CFE9FFF7CFEAFFEF5021EC670E
:10C3FB00F0054A062A00D005C0F6FF06C0F7FFF885
:10C40B006A0E0EF76403D00800F55005D0F6CFE99D
:10C41B00FFF7CFEAFFEF500009D8A4D8D712003CA2
:10C42B00AE17D03AC040F03BC041F03CC042F040A8
:10C43B001E411E421E402A000E41224222000E4087
:10C44B00243A6E000E41203B6E800E42203C6E0063
:10C45B00D03FAE17D03DC040F03EC041F03FC04290
:10C46B00F0401E411E421E402A000E412242220075
:10C47B000E40243D6E000E41203E6E800E42203F4A
:10C48B006E00D0000E3A1A000E3B1A800E3C1A00BA
:10C49B000E3D1A000E3E1A800E3F1A3D503A5C3E7E
:10C4AB00503B583F503C58D8B002D0D8901200D8CF
:10C4BB008012001200000E0C6E0AAE07D0096C0A37
:10C4CB001ED8B00A2A010E0C6E00D008AE07D0079A
:10C4DB006C081ED8B0082A010E0C1A00D0000E0EE4
:10C4EB006E000E0D6E09500A10D8B421D0010E0B40
:10C4FB006E05D0D89009360A360B2A00D00ABE0238
:10C50B00D0F8D700D0D8900D360E360950075C0AFC
:10C51B00500858D8A006D00950075E0A50085A0D8B
:10C52B008000D0D8900A3209320B2EECD700D00CF9
:10C53B0050D8B405D00D6C0E1ED8B00E2A00D00DFD
:10C54B00C007F00EC008F012001200000E0001B37D
:10C55B006F030EB26F000E0001AD6F0F0EAC6FAC20
:10C56B00C004F0A00E056EFF0E066E0001B251CB9B
:10C57B00EC61F0000E0001806F010E7F6F36D0EB87
:10C58B00C055F0ECC056F0B2C057F0B3C058F0AC89
:10C59B00C059F0ADC05AF0000E5C6E0A0E5B6E0017
:10C5AB000E5E6E290E5D6EDFEC68F055C0EBF0563B
:10C5BB00C0ECF080B00BD0000E0001806F000E7F3E
:10C5CB006F0001AE4BAF2B00D080A0FED780B40D17
:10C5DB00D00001AE4BAF2B000E0001806F000E7F21
:10C5EB006F00D080B402D0FDD700D000017F0500D2
:10C5FB00018011D8B4C4D712000001E0BF120000B3
:10C60B0001E8BF1200090E0001E5190001E611D87F
:10C61B00A411D00001DCBF0ED00001DC5105E115E7
:10C62B000E0001DB5DD8A006D0EC0E0001B06FFF51
:10C63B000E0001B16F030E0001E5190001E611D8E0
:10C64B00A411D00001DCBF08D00001DC510BE116B6
:10C65B000E0001DB5DD8B006D0EC0E0001B06FFF11
:10C66B000E0001B16F0001E6BF08D00001E65110CA
:10C67B00E1090E0001E55DD8B00BD00001E6BF0863
:10C68B00D00001E6510CE1030E0001E55DD8B007C7
:10C69B00D0EC0E0001B06FFF0E0001B16F1200DC89
:10C6AB000E0001B06FFF0E0001B16F1200120000FF
:10C6BB0001DF510001E35D0001E451800A016E00CE
:10C6CB0001E051800A0158D8A00ED00001E15100C1
:10C6DB0001DF5D0001E051800A016E0001E2518033
:10C6EB000A0158D8B003D08A8E828E03D08A9E82DC
:10C6FB009E00D00001DF510001E3191AE10001E0B7
:10C70B00510001E419D8A414D00001B4510001E781
:10C71B005D0001E851800A016E0001B551800A01EC
:10C72B0058D8A003D08A8E828E03D08A9E829E0018
:10C73B00D00001E1510001DF191AE10001E25100C3
:10C74B0001E019D8A412000001E9510001E75D00D6
:10C75B0001E851800A016E0001EA51800A0158D8A4
:10C76B00B003D08A8E828E12008A9E829E12001295
:10C77B00000450D8B405D0015002100310D8A40EF9
:10C78B00D0000E016E000E026E000E036E1200063C
:10C79B00D0042AD89003320232013200D0000E01AD
:10C7AB0014066E000E0214076EFE0E0314086E06BE
:10C7BB005007100810D8B40ED0EBD70CD0042A01B8
:10C7CB000E0126000E0222000E0322D89003320225
:10C7DB0032013200D0000E0114066E000E02140757
:10C7EB006EFF0E0314086E065007100810D8B4081D
:10C7FB00D0E5D706D00406D89001360236033600B2
:10C80B00D002BE04D0020E0460F5D700D004B002F3
:10C81B00D0029E00D0D8900432045003120550D899
:10C82B00B402D0038E00D001C001F002C002F003AD
:10C83B00C003F012001200EBC009F0ECC00AF0BE0E
:10C84B00EC5FF009C043F00AC044F00BC045F000A8
:10C85B000E316E000E326E400E336E43C02EF0441E
:10C86B00C02FF045C030F046EC6EF02EC03AF02FE2
:10C87B00C03BF030C03CF0D6C03DF0D7C03EF0D846
:10C88B00C03FF015EC62F0D8B002D08A8C00D043D8
:10C89B00C03AF044C03BF045C03CF0D6C03DF0D7A9
:10C8AB00C03EF0D8C03FF015EC62F0D8A002D08AA1
:10C8BB009C00D0D6C03AF0D7C03BF0D8C03CF000BB
:10C8CB000E316E400E326EC00E336E43C02EF044EE
:10C8DB00C02FF045C030F046EC6EF02EC03DF02F6F
:10C8EB00C03EF030C03FF015EC62F0D8B003D089F9
:10C8FB008E8A9C00D0D6C03AF0D7C03BF0D8C03C53
:10C90B00F043C03DF044C03EF045C03FF015EC6233
:10C91B00F0D8A01200899E120012004DD0B90E4320
:10C92B006E000E446EB50E456EFF0E466E37EC78FC
:10C93B00F061D0B90E436E000E446ED30E456EFF00
:10C94B000E466E37EC78F056D0B90E436E000E449F
:10C95B006EA10E456EFF0E466E37EC78F04BD0B9DC
:10C96B000E436E000E446EC90E456EFF0E466E37BB
:10C97B00EC78F040D0B90E436E000E446EAB0E4512
:10C98B006EFF0E466E37EC78F035D0B90E436E0065
:10C99B000E446EBF0E456EFF0E466E37EC78F02AD6
:10C9AB00D0B90E436E000E446E970E456EFF0E46C9
:10C9BB006E37EC78F01FD0DDC055F0DEC056F05668
:10C9CB0050000AD8A417D05550000AD8B4A7D701E5
:10C9DB000AD8B4AFD7030AD8B4B7D7010AD8B4BFB3
:10C9EB00D7070AD8B4C7D7010AD8B4CFD7030AD808
:10C9FB00B4D7D700D0000E046EB90E056E000E062C
:10CA0B006E020ECBEC61F012002DC02FF0306A31AC
:10CA1B006A2C342F3601E330802F50396E3950D8C1
:10CA2B00A409D0000E2B6E000E2C6E000E2D6E0086
:10CA3B000E2E6E1200170E2F6E2BC030F02CC03145
:10CA4B00F02DC032F02F28336E04D0D89032323113
:10CA5B00323032332EFAD73050346E2C8EFF0E2BF1
:10CA6B0016FF0E2C16000E2D162B50356E2C503635
:10CA7B006E2D50376E386A8E0E395E39AE17D0393F
:10CA8B0050800A8F0FD8B00AD0000E2B6E000E2CE0
:10CA9B006E000E2D6E000E2E6E120000D0D8903848
:10CAAB0032373236323532393EF9D719D0170E3983
:10CABB006411D0000E2B6E000E2C6E000E2D6E002E
:10CACB000E2E6E120007D0D89035363636373638E4
:10CADB0036390600D03950D8B402D0F5D700D0344F
:10CAEB0050D8B409D0381E371E361E356C000E36A2
:10CAFB00223722382200D035C02BF036C02CF0372D
:10CB0B00C02DF038C02EF01200120017C01BF01C05
:10CB1B006A1D6A16341B3601E31C801B501E6E1EE9
:10CB2B0050D8A407D0000E156E000E166E000E170F
:10CB3B006E12001AC01BF01C6A1D6A19341B3601D9
:10CB4B00E31C801B50236E2350D8A407D0000E1576
:10CB5B006E000E166E000E176E120023507B0F1E0A
:10CB6B002617C023F01A50231A800E2316168E197F
:10CB7B008EFF0E1816FF0E1916000E1A16000E1F3A
:10CB8B006E000E206E000E216E070E226E00D01569
:10CB9B00A007D018501F26195020221A502122000E
:10CBAB00D0D890173216321532D890183619361A4B
:10CBBB0036222EEDD700D0090E226E00D015A0071D
:10CBCB00D018501F26195020221A50212200D0D8DD
:10CBDB0090173216321532D890213220321F322262
:10CBEB002EEDD700D01FC001F020C002F021C003F2
:10CBFB00F01EC004F023C005F0BEEC63F001C015BD
:10CC0B00F002C016F003C017F012001200000E065F
:10CC1B006E20EE02F00150D9260250DA225A0EDFB6
:10CC2B0060120020EE01F00150D9260250DA225A90
:10CC3B000EDF60120020EE03F00150D9260250DA0D
:10CC4B0022240EDF6402D01200120020EE02F0014B
:10CC5B0050D9260250DA22DF50096E20EE01F00186
:10CC6B0050D9260250DA22DF50086E0350D8B40296
:10CC7B00D0F29C00D0000E3FBB010E076E0750D8C0
:10CC8B00A403D03CEC5FF000D0000E3FBF010E05BB
:10CC9B006E0550D8B407D0000E91BE010E066E0F74
:10CCAB00013F9F00D0FC0E0F013F170F013F8198F2
:10CCBB00CF0AF099CF0BF020EE03F00150D92602EA
:10CCCB0050DA22DF500A6EFC0E0F013F170F013FA7
:10CCDB00810AC098FF0BC099FF08C098FF09C09943
:10CCEB00FF0550D8B40DD00F013F8F0650D8B402BA
:10CCFB00D0918E00D00750D8B409D03CEC5FF00631
:10CD0B00D00750D8A403D00F013F9B00D00350D8BD
:10CD1B00B41200F28C12001200036E8A988A9A01E8
:10CD2B006A03AE01D0012A010E01168A500118FECA
:10CD3B000B01188A6E03C001F0060E026ED890012B
:10CD4B0032022EFCD7010E011601468A500118FD46
:10CD5B000B01188A6E03C001F0050E026ED890010C
:10CD6B0032022EFCD7010E0116014601468A5001F4
:10CD7B0018FB0B01188A6E03C001F0013A0F0E016C
:10CD8B0016010E01160146014601468A500118F79D
:10CD9B000B01188A6E030EE82EFED700F08A88006E
:10CDAB00F000D000D08A9803C001F0D8900132D89F
:10CDBB00900132D8900132010E01168A500118FEF3
:10CDCB000B01188A6E03C001F0D8900132D8900184
:10CDDB0032010E011601468A500118FD0B01188A0B
:10CDEB006E03C001F0D8900132010E01160146010D
:10CDFB00468A500118FB0B01188A6E03C001F00123
:10CE0B000E01160146014601468A500118F70B0127
:10CE1B00188A6E030EE82EFED700F08A8800F00009
:10CE2B00D000D08A98080E016E230EE82EFED70193
:10CE3B002EFCD700F01200036E8A988A8A016A03CF
:10CE4B00AE01D0012A010E01168A500118FE0B010A
:10CE5B00188A6E03C001F0060E026ED890013202E2
:10CE6B002EFCD7010E011601468A500118FD0B014D
:10CE7B00188A6E03C001F0050E026ED890013202C3
:10CE8B002EFCD7010E0116014601468A500118FBF4
:10CE9B000B01188A6E03C001F0013A0F0E01160147
:10CEAB000E01160146014601468A500118F70B0187
:10CEBB00188A6E030EE82EFED700F08A8800F00069
:10CECB00D000D08A9803C001F0D8900132D89001DD
:10CEDB0032D8900132010E01168A500118FE0B0157
:10CEEB00188A6E03C001F0D8900132D8900132013C
:10CEFB000E011601468A500118FD0B01188A6E03AC
:10CF0B00C001F0D8900132010E0116014601468A8C
:10CF1B00500118FB0B01188A6E03C001F0010E01C2
:10CF2B00160146014601468A500118F70B01188A73
:10CF3B006E030EE82EFED700F08A8800F000D000BA
:10CF4B00D08A9800F000D000D0080E016E230EE8B6
:10CF5B002EFED7012EFCD700F012009390939293E4
:10CF6B009493969398939A8A908A928A948A968AA3
:10CF7B00988A9A080E046E230EE82EFED7042EFC18
:10CF8B00D700F0080E046E230EE82EFED7042EFCFD
:10CF9B00D700F0080E046E230EE82EFED7042EFCED
:10CFAB00D700F0080E046E230EE82EFED7042EFCDD
:10CFBB00D700F0080E046E230EE82EFED7042EFCCD
:10CFCB00D700F0080E046E230EE82EFED7042EFCBD
:10CFDB00D700F0010E056E1FD021D08A908A928A5D
:10CFEB00848A868A988A9A8A908A928A848A868A7E
:10CFFB00888A9A00F000D000D08A908A928A848A1C
:10D00B00868A988A9A080E046E230EE82EFED704A1
:10D01B002EFCD700F0052A030E0564DFD78A908A11
:10D02B00928A848A968A988A9A8A908A928A848A21
:10D03B00968A888A9A00F000D000D08A908A928AC9
:10D04B00848A968A988A9A080E046E230EE82EFE1E
:10D05B00D7042EFCD700F0280E056E055092EC6617
:10D06B00F0100E056E055092EC66F0010E056E0584
:10D07B005092EC66F00F0E056E055092EC66F012B6
:10D08B0000000E0001DE6F000EDD6F93EC64F0000C
:10D09B000E586E010E576E000E046EA00E056EFF3D
:10D0AB000E066E020ECBEC61F00F0E92EC66F07773
:10D0BB00D080B223D00001DEBF0ED00001DE5104C0
:10D0CB00E10001DD05D8A007D00001DD07D8A0DE07
:10D0DB000793EC64F003D093EC64F000D0000E04E3
:10D0EB006EA00E056EFF0E066E020ECBEC61F00FFE
:10D0FB000E92EC66F000D080A2FED780BA20D00052
:10D10B0001DEBF08D00001DE510BE1070E0001DD8F
:10D11B005DD8B006D00001DD4BDE2B93EC64F00044
:10D12B00D0000E046EA00E056EFF0E066E020ECB27
:10D13B00EC61F00F0E92EC66F000D080AAFED78067
:10D14B00B018D0000E0001AF6F020EAE6F000E587C
:10D15B006E000E576E0B0E046EA00E056EFF0E06C4
:10D16B006E020ECBEC61F0100E92EC66F000D080EC
:10D17B00A0FED780B414D00001AE050001AF11D8CA
:10D18B00A40ED0000E0001AF6F030EAE6F000E5851
:10D19B006E000E576E00D080B402D0FDD700D05871
:10D1AB00BE05D0585085E15704D8B082D778EC6DC6
:10D1BB00F0120055C07DF056C07EF080BA46D0000C
:10D1CB00017D4B7E2B00017D515B5C5C50800A5FC7
:10D1DB006E00017E51800A5F58D8B030D05D500090
:10D1EB00017D5D00017E51800A5F6E5E50800A5F9B
:10D1FB0058D8B024D0B90E436E000E446E140E45B1
:10D20B006EFF0E466E7DC047F07EC048F037EC785F
:10D21B00F059C004F0B90E056E000E066E5750CBD8
:10D22B00EC61F059C004F0A00E056EFF0E066E57B0
:10D23B0050CBEC61F00F0E92EC66F005D000017D47
:10D24B0007D8A07E0700D080AAFED780B246D000B8
:10D25B00017D07D8A07E0700017D515B5C5C50808F
:10D26B000A5F6E00017E51800A5F58D8B030D05DE6
:10D27B005000017D5D00017E51800A5F6E5E508023
:10D28B000A5F58D8B024D0B90E436E000E446E140A
:10D29B000E456EFF0E466E7DC047F07EC048F037E0
:10D2AB00EC78F059C004F0B90E056E000E066E57FF
:10D2BB0050CBEC61F059C004F0A00E056EFF0E06CA
:10D2CB006E5750CBEC61F00F0E92EC66F004D00071
:10D2DB00017D4B7E2B00D080A2FED77DC055F07E0A
:10D2EB00C056F01200033404340C6E0C50D8A40951
:10D2FB00D0000E016E000E026E000E036E000E04C7
:10D30B006E1200063407340B6E0B50D8A409D000F4
:10D31B000E016E000E026E000E036E000E046E12F6
:10D32B0000038EFF0E0116FF0E0216FF0E031600F2
:10D33B000E0416068EFF0E0416FF0E0516FF0E06C4
:10D34B0016000E0716000E076E000E086E000E0973
:10D35B006E000E0A6E7F0E0C5E0B50A00F0C5E2043
:10D36B000E0B6E00D0D8900736083609360A3604F5
:10D37B0050015C055002580650035807500458D80A
:10D38B00A00AD00450015E0550025A0650035A07FA
:10D39B0050045A078000D0D8900136023603360469
:10D3AB00360B2EE0D700D00CAE17D00C50800A9F56
:10D3BB000FD8B00AD0000E016E000E026E000E03E5
:10D3CB006E000E046E120000D0D8900A320932089B
:10D3DB003207320C3EF9D717D01F0E0C6411D00058
:10D3EB000E016E000E026E000E036E000E046E1226
:10D3FB000007D0D8900736083609360A360C0600D7
:10D40B00D00C50D8A4F6D707C001F008C002F00921
:10D41B00C003F00AC004F0120003C007F0086A0949
:10D42B006A0234073601E3088007500F6E0F50D89D
:10D43B00A409D0000E016E000E026E000E036E00EA
:10D44B000E046E120006C007F0086A096A0534075D
:10D45B003601E3088007500E6E0E50D8A409D00099
:10D46B000E016E000E026E000E036E000E046E12A5
:10D47B0000028EFF0E0116FF0E0216000E0316059C
:10D48B008EFF0E0416FF0E0516000E0616000E0A72
:10D49B006E000E0B6E000E0C6E000E0D6E7F0E0FDF
:10D4AB005E0E50980F0F5E180E0E6ED8900A360B4C
:10D4BB00360C360D360450015C05500258065003ED
:10D4CB0058D8A007D00450015E0550025A065003ED
:10D4DB005A0A80D8900136023603360E2EE6D70054
:10D4EB00D00FAE17D00F50800A970FD8B00AD000CC
:10D4FB000E016E000E026E000E036E000E046E1215
:10D50B000000D0D8900D320C320B320A320F3EF99C
:10D51B00D717D0170E0F6411D0000E016E000E023C
:10D52B006E000E036E000E046E120007D0D8900A28
:10D53B00360B360C360D360F0600D00F50D8A4F62E
:10D54B00D70AC001F00BC002F00CC003F00DC004F1
:10D55B00F01200000E066E20EE02F00150D92602EA
:10D56B0050DA22130EDF60120020EE02F00150D9C8
:10D57B00260250DA22DF50D8B4120020EE01F0015F
:10D58B0050D9260250DA22320EDF60120020EE0153
:10D59B00F00150D9260250DA22DF50D8B412002005
:10D5AB00EE03F00150D9260250DA22990EDF640205
:10D5BB00D01200120020EE03F00150D9260250DAEF
:10D5CB0022DF50076E20EE01F00150D9260250DA0F
:10D5DB0022DF500A6E20EE02F00150D9260250DAFB
:10D5EB0022DF500B6E0350D8B402D0F29C00D00057
:10D5FB000E3FBB010E096E0950D8A403D03CEC5F63
:10D60B00F000D0000E3FBF010E056E0550D8B407D9
:10D61B00D0000E91BE010E066E0F013F9F00D0FC95
:10D62B000E0F013F170F013F8198CF0CF099CF0DD3
:10D63B00F001C0D9FF02C0DAFFDF500D6EFC0E0FF8
:10D64B00013F17030E0F013F1307C098FF08C09946
:10D65B00FF0AC098FF0BC099FF0CC098FF0DC09933
:10D66B00FF0550D8B40DD00F013F8F0650D8B40230
:10D67B00D0918E00D00950D8B409D03CEC5FF006A5
:10D68B00D00950D8A403D00F013F9B00D00350D832
:10D69B00B41200F29C12001200D10E016E000E02A9
:10D6AB006E4FEC60F00001D2510F0B0001F96F00CF
:10D6BB0001D2390F0B0F0B0001F86F0001D3510F83
:10D6CB000B0001F76F0001D3390F0B0F0B0001F6A5
:10D6DB006F0001D4510F0B0001F36F0001D4390F10
:10D6EB000B0F0B0001F26FCD0E016E000E026E845C
:10D6FB00EC61F00001CE510F0B0001F16F0001CE78
:10D70B00390F0B0F0B0001F06F0001CF510F0B0006
:10D71B0001F56F0001CF390F0B0F0B0001F46FCD2B
:10D72B00C0EFF00001D0510F0B0001EE6F0001D0E4
:10D73B00390F0B0F0B0001ED6F0001F8510A0D00B3
:10D74B0001F951F3240001B66F0001000EF4200023
:10D75B0001B76F0001F6510A0D0001F751F32400D8
:10D76B0001E76F0001000EF4200001E86F0001F2E9
:10D77B00510A0D0001F351F3240001DF6F0001008A
:10D78B000EF4200001E06F0001F0510A0D0001F1D1
:10D79B0051F3240001DB6F0001000EF4200001DCCB
:10D7AB006FEFC0DDF00001DE6B0001F4510A0D00DC
:10D7BB0001F551F3240001E56F0001000EF4200088
:10D7CB0001E66F0001ED510A0D0001EE51F324004B
:10D7DB0001D96F0001000EF4200001DA6F1200A8CE
:10D7EB00EC5FF0000E566E010E556E000E586E007B
:10D7FB000E576EADEC6CF0B90E436E000E446E6EB0
:10D80B000E456EFF0E466EDFC047F0E0C048F0E7F6
:10D81B00C049F0E8C04AF0B6C04BF0B7C04CF03787
:10D82B00EC78F0000E046EB90E056E000E066E025B
:10D83B000ECBEC61F002EC63F0B90E436E000E44BC
:10D84B006EF30E456EFF0E466EB0C047F0B1C0488A
:10D85B00F037EC78F00C0E046EB90E056E000E0668
:10D86B006E020ECBEC61F0B90E436E000E446E7E71
:10D87B000E456EFF0E466EEBC047F0ECC048F0371E
:10D88B00EC78F0000E046EB90E056E000E066E03FA
:10D89B000ECBEC61F0B8C0D5F00001D55181EC5F37
:10D8AB00F009C015F00AC016F00BC017F0B40E1833
:10D8BB006E480E196E3E0E1A6E8BEC65F015C0D6C7
:10D8CB00F016C0D7F017C0D8F0B90E436E000E4457
:10D8DB006E8C0E456EFF0E466ED6C047F0D7C04815
:10D8EB00F0D8C049F037EC78F00C0E046EB90E0589
:10D8FB006E000E066E030ECBEC61F021EC64F0B9FA
:10D90B000E436E000E446E9F0E456EFE0E466EE38A
:10D91B00C047F0E4C048F0B4C049F0B5C04AF0E1EC
:10D92B00C04BF0E2C04CF0E9C04DF0EAC04EF0370E
:10D93B00EC78F0000E046EB90E056E000E066E0448
:10D94B000ECBEC61F05DEC63F036EC5FF01200A1F6
:10D95B00D0B90E436E000E446ED50E456EFE0E46CC
:10D96B006EDBC047F0DCC048F0E5C049F0E6C04ACA
:10D97B00F0D9C04BF0DAC04CF037EC78F0A9D0B945
:10D98B000E436E000E446E450E456EFF0E466EDB6B
:10D99B00C047F0DCC048F0E5C049F0E6C04AF0D91A
:10D9AB00C04BF0DAC04CF037EC78F092D0B90E43A4
:10D9BB006E000E446E190E456EFF0E466EDBC047B1
:10D9CB00F0DCC048F0E5C049F0E6C04AF0D9C04BE6
:10D9DB00F0DAC04CF037EC78F07BD0B90E436E0028
:10D9EB000E446EBC0E456EFE0E466EDBC047F0DC81
:10D9FB00C048F0E5C049F0E6C04AF0D9C04BF0DAB8
:10DA0B00C04CF037EC78F064D0B90E436E000E4486
:10DA1B006E2F0E456EFF0E466EDBC047F0DCC04826
:10DA2B00F0E5C049F0E6C04AF0D9C04BF0DAC04C83
:10DA3B00F037EC78F04DD0B90E436E000E446EEC1F
:10DA4B000E456EFE0E466EDBC047F0DCC048F0E5BF
:10DA5B00C049F0E6C04AF0D9C04BF0DAC04CF03701
:10DA6B00EC78F036D0B90E436E000E446E030E45C3
:10DA7B006EFF0E466EDBC047F0DCC048F0E5C049D8
:10DA8B00F0E6C04AF0D9C04BF0DAC04CF037EC7876
:10DA9B00F01FD0DDC059F0DEC05AF05A50000AD842
:10DAAB00A417D05950000AD8B453D7010AD8B46779
:10DABB00D7030AD8B47BD7010AD8B48FD7070AD8B3
:10DACB00B4A3D7010AD8B4B7D7030AD8B4CBD700BD
:10DADB00D057C004F0B90E056E000E066E5550CB34
:10DAEB00EC61F012003CEC5FF0A380B6C007F0B71E
:10DAFB00C008F0000E0A6E0A0E096E60EC62F007A9
:10DB0B00500001F86F0001F8510A0DF350000800A6
:10DB1B0001B6250001F96F0001F851100DF350000B
:10DB2B0001F9250001D26FE7C007F0E8C008F0004B
:10DB3B000E0A6E0A0E096E60EC62F007500001F6D9
:10DB4B006F0001F6510A0DF35000080001E72500A4
:10DB5B0001F76F0001F651100DF3500001F725008E
:10DB6B0001D36FDFC007F0E0C008F0000E0A6E0AA9
:10DB7B000E096E60EC62F007500001F26F0001F2CB
:10DB8B00510A0DF35000080001DF250001F36F006F
:10DB9B0001F251100DF3500001F3250001D46FD9A0
:10DBAB00C007F0DAC008F0000E0A6E0A0E096E60AC
:10DBBB00EC62F007500001ED6F0001ED510A0DF31F
:10DBCB005000080001D9250001EE6F0001ED511046
:10DBDB000DF3500001EE250001D06FE5C007F0E614
:10DBEB00C008F0000E0A6E0A0E096E60EC62F007B8
:10DBFB00500001F46F0001F4510A0DF350000800BE
:10DC0B0001E5250001F56F0001F451100DF35000F3
:10DC1B0001F5250001CF6FDBC007F0DCC008F00079
:10DC2B000E0A6E0A0E096E60EC62F007500001F0EE
:10DC3B006F0001F0510A0DF35000080001DB2500C5
:10DC4B0001F16F0001F051100DF3500001F12500AF
:10DC5B0001CE6FDDC0EFF0DDC0CDF0D10E016E0057
:10DC6B000E026E010E036E0CEC66F0CD0E016E0013
:10DC7B000E026E010E036EAFEC6AF00F013F8F12B6
:10DC8B000030C034F0356A366A2F34343601E33550
:10DC9B00803450396E33C034F0356A366A323434DE
:10DCAB003601E335803450386E3950D8B40BD03848
:10DCBB0050395CD8B00ED0395000083824346E1867
:10DCCB000E346407D031C02EF032C02FF033C03089
:10DCDB00F012003850D8B40BD03950385CD8B00E95
:10DCEB00D0385000083924346E180E346407D02E07
:10DCFB00C02EF02FC02FF030C030F01200060E37C0
:10DD0B006E30AE02D0378E00D033BE378C2F8EFFE5
:10DD1B000E2E16FF0E2F16000E3016328EFF0E3102
:10DD2B0016FF0E3216000E33163850395CD8B01E63
:10DD3B00D0D890313632363336380639503818D879
:10DD4B00B40FD0370637C034F0070E3416D8B408EA
:10DD5B00D0EFD706D0D89030322F322E32392A005E
:10DD6B00D038503918D8B424D0F5D722D039503800
:10DD7B005CD8B01ED0D8902E362F363036390639B7
:10DD8B00503818D8B40FD0370637C034F0070E34DC
:10DD9B0016D8B408D0EFD706D0D890333232323100
:10DDAB0032382A00D038503918D8B402D0F5D70001
:10DDBB00D037AE0CD0FF0E2E1AFF0E2F1AFF0E30DF
:10DDCB001A010E2E26000E2F22000E302237AC0D1C
:10DDDB00D0FF0E311AFF0E321AFF0E331A010E311D
:10DDEB0026000E3222000E332200D0000E376E2E8C
:10DDFB005031262F5032223050332233AE0FD0FF0A
:10DE0B000E311AFF0E321AFF0E331A010E31260095
:10DE1B000E3222000E3322010E376E00D031C001BC
:10DE2B00F032C002F033C003F039C004F037C00544
:10DE3B00F0BEEC63F001C02EF002C02FF003C03037
:10DE4B00F0120012002D6E6D0E2D64A0D0000E127C
:10DE5B006E030E116E000E0A6E0A0E096E000E0492
:10DE6B006E640E036E2DC001F0026AFDEC60F001D2
:10DE7B00C007F002C008F060EC62F0090E07240F37
:10DE8B006E000E0820106E94EC5FF0510E0F24F60E
:10DE9B006EFE0E1020F76E0900F5CF18F00900F595
:10DEAB00CF19F00A00F5CF1AF0000E0A6E640E09B6
:10DEBB006E2DC007F0086A60EC62F0120E07240F9B
:10DECB006E000E0820106E000E126E030E116E9473
:10DEDB00EC5FF0510E0F24F66EFE0E1020F76E095C
:10DEEB0000F5CF15F00900F5CF16F00A00F5CF17A6
:10DEFB00F08BEC65F015C02AF016C02BF017C02C78
:10DF0B00F0000E126E030E116E000E046E0A0E035D
:10DF1B006E2DC001F0026AFDEC60F001C00FF00243
:10DF2B00C010F094EC5FF0510E0F24F66EFE0E1045
:10DF3B0020F76E0900F5CF18F00900F5CF19F00A9C
:10DF4B0000F5CF1AF02AC015F02BC016F02CC01715
:10DF5B00F08BEC65F015C027F016C028F017C02920
:10DF6B00F027C015F028C016F029C017F0000E18C6
:10DF7B006E000E196E3F0E1A6E8BEC65F015C024F9
:10DF8B00F016C025F017C026F0120062D00A0E2D35
:10DF9B00645FD0000E126E030E116E000E046E0A3B
:10DFAB000E036E2DC001F0026AFDEC60F001C00F94
:10DFBB00F002C010F094EC5FF0510E0F24F66EFEE1
:10DFCB000E1020F76E0900F5CF18F00900F5CF19E8
:10DFDB00F00A00F5CF1AF0000E0A6E0A0E096E2D2C
:10DFEB00C007F0086A60EC62F0090E07240F6E00A0
:10DFFB000E0820106E000E126E030E116E94EC5F65
:10E00B00F0510E0F24F66EFE0E1020F76E0900F580
:10E01B00CF15F00900F5CF16F00A00F5CF17F08BEE
:10E02B00EC65F015C02AF016C02BF017C02CF02AA7
:10E03B00C015F02BC016F02CC017F0000E186E0098
:10E04B000E196E3F0E1A6E8BEC65F098D71200000E
:10E05B00D02D50030D510EF324F66EFE0EF420F767
:10E06B006E0900F5CF15F00900F5CF16F00A00F593
:10E07B00CF17F0000E186E000E196E3F0E1A6E8B36
:10E08B00EC65F015C024F016C025F017C026F01271
:10E09B000012007FC08FF080C090F00001814B8296
:10E0AB002B2BD1030E00018F1900019011D8A47EE8
:10E0BB00D00001810500018211D8A478D0000E0494
:10E0CB006EA00E056EFF0E066E030ECBEC61F0001C
:10E0DB000E0001B36F030EB26F000E0001AD6F00A7
:10E0EB000EAC6F000E00018C6F010E8B6F53D000C6
:10E0FB000183698469000E0001866F180E856FDF3E
:10E10B00C055F0E0C056F0B2C057F0B3C058F0ACF9
:10E11B00C059F0ADC05AF083C05BF084C05CF08591
:10E12B00C05DF086C05EF0DFEC68F055C0DFF056E6
:10E13B00C0E0F080B011D00001810500018211D840
:10E14B00A40BD00001814B822B000E00018C6F00C1
:10E15B000E8B6F00D080A0FED780B41CD0000E00B9
:10E16B0001826F030E816F0C0E92EC66F0000E00B5
:10E17B00018C6F000E8B6F000E0001AF6F050EAEA2
:10E18B006F000E0001906F000E8F6F00D080B402F5
:10E19B00D0FDD700D000018CBF09D000018C51A756
:10E1AB00E100018B05D8A002D0A2D700D0030E004E
:10E1BB00018F1900019011D8A49FD0020E0001818C
:10E1CB001900018211D8A498D0000E0001B36F037F
:10E1DB000EB26F030E0001AC250001AC6F000E00F8
:10E1EB0001AD210001AD6FACC004F0A00E056EFFB8
:10E1FB000E066E0001B251CBEC61F0000E00018EE9
:10E20B006F010E8D6F6DD0000187698869000E005C
:10E21B00018A6F3C0E896FE7C055F0E8C056F0B22B
:10E22B00C057F0B3C058F0ACC059F0ADC05AF0872E
:10E23B00C05BF088C05CF089C05DF08AC05EF0DF27
:10E24B00EC68F055C0E7F056C0E8F080B60DD00092
:10E25B000E0001826F010E816F000E00018E6F00A8
:10E26B000E8D6F00D080A6FED780B01ED00001812E
:10E27B004B822B000E0001AF6F040EAE6F000E0031
:10E28B00018E6F000E8D6F0F0E046EA00E056EFFCC
:10E29B000E066E030ECBEC61F0000E0001906F00CA
:10E2AB000E8F6F00D080A0FED780B41AD0000181F2
:10E2BB004B822B000E0001AF6F050EAE6F0C0E9252
:10E2CB00EC66F0000E00018E6F000E8D6F000E00DD
:10E2DB0001906F000E8F6F00D080B402D0FDD7007D
:10E2EB00D000018EBF09D000018E518DE100018D50
:10E2FB0005D8A002D088D700D0030E00018F1900DB
:10E30B00019011D8B4CED678EC6DF0120080B41217
:10E31B0000000E0001AF6F010EAE6F000E0001A9E1
:10E32B006F000EA86F000E0001AB6F000EAA6F00FE
:10E33B0001A9BF0ED00001A95105E1040E0001A8EF
:10E34B005DD8A006D0000E0001A96F010EA86F00CA
:10E35B00D00001ABBF0ED00001AB5105E1030E00A5
:10E36B0001AA5DD8A006D0000E0001AB6F010EAA6A
:10E37B006F00D0010E92EC66F052EC6BF0000E04C5
:10E38B006E5A0E056EFF0E066E010ECBEC61F0B9E8
:10E39B000E436E000E446E0A0E456EFF0E466EDB8C
:10E3AB00C047F0DCC048F0E5C049F0E6C04AF0D900
:10E3BB00C04BF0DAC04CF037EC78F00A0E046EB9B3
:10E3CB000E056E000E066E020ECBEC61F0B90E431D
:10E3DB006E000E446E730E456EFF0E466EDFC04729
:10E3EB00F0E0C048F0E7C049F0E8C04AF037EC78FD
:10E3FB00F0000E046EB90E056E000E066E030ECB0A
:10E40B00EC61F0B90E436E000E446E7E0E456EFF4E
:10E41B000E466EEBC047F0ECC048F037EC78F007D7
:10E42B000E046EB90E056E000E066E030ECBEC617C
:10E43B00F0B90E436E000E446E9F0E456EFE0E46F7
:10E44B006EE3C047F0E4C048F0B4C049F0B5C04A31
:10E45B00F0E1C04BF0E2C04CF0E9C04DF0EAC04E29
:10E46B00F037EC78F0000E046EB90E056E000E0658
:10E47B006E040ECBEC61F00001AE050001AF11D8BC
:10E48B00A403D046EC68F000D0020E0001AE1900D8
:10E49B0001AF11D8A40BD0AEC07FF0AFC080F0A8F5
:10E4AB00C081F0A9C082F083EC74F000D0030E00A1
:10E4BB0001AE190001AF11D8A40BD0AEC07FF0AFE5
:10E4CB00C080F0AAC081F0ABC082F04FEC70F000BE
:10E4DB00D0040E0001AE190001AF11D8A403D0ABCC
:10E4EB00EC62F000D0050E0001AE190001AF11D89F
:10E4FB00A426D0000E0001B36F040EB26F000E0005
:10E50B0001AD6F090EAC6F000E0001986F010E97F5
:10E51B006FAEC07FF0AFC080F0AAC081F0ABC082FD
:10E52B00F0B2C083F0B3C084F0ACC085F0ADC08650
:10E53B00F097C087F098C088F0EBEC72F000D00633
:10E54B000E0001AE190001AF11D8A426D0000E00A9
:10E55B0001B36F040EB26F000E0001AD6F0F0EAC66
:10E56B006F000E00019A6F020E996FAEC07FF0AF75
:10E57B00C080F0AAC081F0ABC082F0B2C083F0B310
:10E58B00C084F0ACC085F0ADC086F099C087F09A1E
:10E59B00C088F0EBEC72F000D00001AFBF11D000DF
:10E5AB0001AF5105E1070E0001AE5DD8A009D00106
:10E5BB000E92EC66F0000E0001AF6F000EAE6F0016
:10E5CB00D080B41200FDD7120012007FC08BF080F8
:10E5DB00C08CF00001814B822B0F0E92EC66F07D0C
:10E5EB00D10001810500018211D8A49ED085C00401
:10E5FB00F0A00E056EFF0E066E00018351CBEC6191
:10E60B00F083C0B2F084C0B3F085C0ACF086C0AD6F
:10E61B00F0000E00018A6F010E896F7AD000018F16
:10E62B00699069000E0001926F180E916F000187BF
:10E63B000500018811D8A41BD0E3C055F0E4C056E7
:10E64B00F083C057F084C058F085C059F086C05A8B
:10E65B00F08FC05BF090C05CF091C05DF092C05E3B
:10E66B00F0DFEC68F055C0E3F056C0E4F000D002E8
:10E67B000E0001871900018811D8A41BD0E1C055E9
:10E68B00F0E2C056F083C057F084C058F085C059F3
:10E69B00F086C05AF08FC05BF090C05CF091C05D0B
:10E6AB00F092C05EF0DFEC68F055C0E1F056C0E2CE
:10E6BB00F000D080B011D00001810500018211D88B
:10E6CB00A40BD00001814B822B000E00018A6F003E
:10E6DB000E896F00D080A0FED780B41AD0000E0038
:10E6EB0001826F030E816F0C0E92EC66F0000E0030
:10E6FB00018A6F000E896F0001AE4BAF2B000E002D
:10E70B00018C6F000E8B6F00D080B402D0FDD70050
:10E71B00D000018ABF09D000018A5180E100018934
:10E72B0005D8A002D07BD700D0020E0001811900C2
:10E73B00018211D8A4D2D083C0B2F084C0B3F0034D
:10E74B000E000185250001AC6F000E000186210033
:10E75B0001AD6FACC004F0A00E056EFF0E066E008F
:10E76B0001B251CBEC61F0000E00018E6F010E8DEA
:10E77B006FA8D0000193699469000E0001966F3C5D
:10E78B000E956F0001870500018811D8A41BD0B42A
:10E79B00C055F0B5C056F0B2C057F0B3C058F0AC8E
:10E7AB00C059F0ADC05AF093C05BF094C05CF095CB
:10E7BB00C05DF096C05EF0DFEC68F055C0B4F0566B
:10E7CB00C0B5F000D0020E0001871900018811D8E6
:10E7DB00A41BD0E9C055F0EAC056F0B2C057F0B355
:10E7EB00C058F0ACC059F0ADC05AF093C05BF09478
:10E7FB00C05CF095C05DF096C05EF0DFEC68F05544
:10E80B00C0E9F056C0EAF000D080B60DD0000E0083
:10E81B0001826F010E816F000E00018E6F000E8D55
:10E82B006F00D080A6FED780B02BD0000E00018EDB
:10E83B006F000E8D6F0001870500018811D8A4129F
:10E84B00D00001AC51030F046EA00E056EFF0E0637
:10E85B006E0001B251CBEC61F0000E0001826F0033
:10E86B000E816F00D00001AE4BAF2B0C0E92EC66FD
:10E87B00F0000E00018C6F000E8B6F00D080A0FE9D
:10E88B00D780B41FD00001814B822B020E0001AE4A
:10E89B00250001AE6F000E0001AF210001AF6F0C20
:10E8AB000E92EC66F0000E00018E6F000E8D6F0065
:10E8BB000E00018C6F000E8B6F00D080B402D0FD68
:10E8CB00D700D000018EBF09D000018E5104E100AA
:10E8DB00018D05D8A002D04DD700D000017F51008B
:10E8EB00018B1908E10001805100018C19D8A40299
:10E8FB00D077D600D078EC6DF012000001814B82FE
:10E90B002B7FC095F080C096F0A3D1020E0001952D
:10E91B001900019611D8A479D0000181050001825C
:10E92B0011D8A473D00A0E046EA00E056EFF0E064E
:10E93B006E020ECBEC61F0000E0001B36F020EB253
:10E94B006F000E0001AD6F0A0EAC6F000E00019050
:10E95B006F010E8F6F4ED0000E0001846F000E837F
:10E96B006F000E0001866F200E856FDBC055F0DC4B
:10E97B00C056F0B2C057F0B3C058F0ACC059F0ADB0
:10E98B00C05AF083C05BF084C05CF085C05DF0863C
:10E99B00C05EF0DFEC68F055C0DBF056C0DCF080F9
:10E9AB00B011D00001810500018211D8A40BD00059
:10E9BB0001814B822B000E0001906F000E8F6F00B8
:10E9CB00D080A0FED780B415D0000E0001966F004A
:10E9DB000E956F0001814B822B0001AE4BAF2B00CC
:10E9EB000E0001906F000E8F6F00D080B402D0FD2F
:10E9FB00D700D0000190BF09D000019051ACE100CD
:10EA0B00018F05D8A002D0A7D700D0020E00019528
:10EA1B001900019611D8A48DD0020E0001811900A6
:10EA2B00018211D8A486D0000E0001B36F020EB282
:10EA3B006F030E0001AC250001AC6F000E0001ADA1
:10EA4B00210001AD6FACC004F0A00E056EFF0E06E9
:10EA5B006E0001B251CBEC61F0000E0001946F011E
:10EA6B000E936F5BD0000E0001886F000E876F0056
:10EA7B000E00018A6F0D0E896FE5C055F0E6C0568A
:10EA8B00F0B2C057F0B3C058F0ACC059F0ADC05A9B
:10EA9B00F087C05BF088C05CF089C05DF08AC05E17
:10EAAB00F0DFEC68F055C0E5F056C0E6F080B60D2F
:10EABB00D0000E0001826F010E816F000E000194D9
:10EACB006F000E936F00D080A6FED780B012D002DD
:10EADB000E0001811900018211D8A40BD000018115
:10EAEB004B822B000E0001946F000E936F00D080B1
:10EAFB00A0FED780B412D0000E0001966F000E95C9
:10EB0B006F000E0001946F000E936F0001AE4BAFC0
:10EB1B002B00D080B402D0FDD700D0000194BF09E8
:10EB2B00D0000194519FE100019305D8A002D09A27
:10EB3B00D700D0020E0001951900019611D8A488B8
:10EB4B00D0030E0001811900018211D8A481D000DD
:10EB5B000E0001B36F020EB26F030E0001AC250065
:10EB6B0001AC6F000E0001AD210001AD6FACC00414
:10EB7B00F0A00E056EFF0E066E0001B251CBEC61DC
:10EB8B00F0000E0001926F010E916F56D0000E0037
:10EB9B00018C6F000E8B6F000E00018E6F640E8D5B
:10EBAB006FD9C055F0DAC056F0B2C057F0B3C058A9
:10EBBB00F0ACC059F0ADC05AF08BC05BF08CC05CB0
:10EBCB00F08DC05DF08EC05EF0DFEC68F055C0D903
:10EBDB00F056C0DAF080B61CD0000E0001B36F0205
:10EBEB000EB26FFA0E0001AC250001AC6FFF0E00E8
:10EBFB0001AD210001AD6F000E0001826F020E818D
:10EC0B006F000E0001926F000E916F00D080A6FE78
:10EC1B00D780B412D0000E0001966F000E956F00D6
:10EC2B0001AE4BAF2B000E0001926F000E916F00E7
:10EC3B00D080B402D0FDD700D0000192BF09D00024
:10EC4B00019251A4E100019105D8A002D09FD700F9
:10EC5B00D0020E0001951900019611D8B456D67842
:10EC6B00EC6DF012002A6E2AAEFED02A6C2A508070
:10EC7B000A120FD8A092D0000E126E030E116E0066
:10EC8B000E0A6E0A0E096E000E046E640E036E2AD7
:10EC9B0050016E026A01BE0206FDEC60F001C00776
:10ECAB00F002C008F060EC62F0090E07240F6E0052
:10ECBB000E0820106E94EC5FF0510E0F24F66EFED2
:10ECCB000E1020F76E0900F5CF18F00900F5CF19DB
:10ECDB00F00A00F5CF1AF0000E0A6E640E096E2AC8
:10ECEB0050076E086A07BE080660EC62F0120E074A
:10ECFB00240F6E000E0820106E000E126E030E1104
:10ED0B006E94EC5FF0510E0F24F66EFE0E1020F792
:10ED1B006E0900F5CF15F00900F5CF16F00A00F5D6
:10ED2B00CF17F08BEC65F015C027F016C028F01745
:10ED3B00C029F027C015F028C016F029C017F00025
:10ED4B000E126E030E116E000E046E0A0E036E2A67
:10ED5B0050016E026A01BE0206FDEC60F001C00FAD
:10ED6B00F002C010F094EC5FF0510E0F24F66EFE23
:10ED7B000E1020F76E0900F5CF18F00900F5CF192A
:10ED8B00F00A00F5CF1AF08BEC65F015C024F016E5
:10ED9B00C025F017C026F0120054D02A50800A75F7
:10EDAB000FD8A04FD0000E0A6E0A0E096E2A50071C
:10EDBB006E086A07BE080660EC62F0090E07240FA6
:10EDCB006E000E0820106E000E126E030E116E9464
:10EDDB00EC5FF0510E0F24F66EFE0E1020F76E094D
:10EDEB0000F5CF15F00900F5CF16F00A00F5CF1797
:10EDFB00F0000E126E030E116E000E046E0A0E035F
:10EE0B006E2A50016E026A01BE0206FDEC60F00133
:10EE1B00C00FF002C010F094EC5FF0510E0F24F60F
:10EE2B006EFE0E1020F76E0900F5CF18F00900F5F5
:10EE3B00CF19F00A00F5CF1AF08BEC65F0A6D712BC
:10EE4B000000D02A50030D510EF324F66EFE0EF483
:10EE5B0020F76E0900F5CF24F00900F5CF25F00A55
:10EE6B0000F5CF26F012002A50800A120FD8A0927C
:10EE7B00D0000E126E030E116E000E0A6E0A0E09F2
:10EE8B006E000E046E640E036E2A50016E026A0150
:10EE9B00BE0206FDEC60F001C007F002C008F06096
:10EEAB00EC62F0090E07240F6E000E0820106E9412
:10EEBB00EC5FF0780E0F24F66EFE0E1020F76E0945
:10EECB0000F5CF18F00900F5CF19F00A00F5CF1AAD
:10EEDB00F0000E0A6E640E096E2A50076E086A0760
:10EEEB00BE080660EC62F0120E07240F6E000E08CF
:10EEFB0020106E000E126E030E116E94EC5FF07804
:10EF0B000E0F24F66EFE0E1020F76E0900F5CF15CE
:10EF1B00F00900F5CF16F00A00F5CF17F08BEC6572
:10EF2B00F015C027F016C028F017C029F027C01520
:10EF3B00F028C016F029C017F0000E126E030E1148
:10EF4B006E000E046E0A0E036E2A50016E026A01E9
:10EF5B00BE0206FDEC60F001C00FF002C010F09491
:10EF6B00EC5FF0780E0F24F66EFE0E1020F76E0994
:10EF7B0000F5CF18F00900F5CF19F00A00F5CF1AFC
:10EF8B00F08BEC65F015C024F016C025F017C026E9
:10EF9B00F0120054D02A50800A750FD8A04FD00021
:10EFAB000E0A6E0A0E096E2A50076E086A07BE0813
:10EFBB000660EC62F0090E07240F6E000E0820109D
:10EFCB006E000E126E030E116E94EC5FF0780E0F46
:10EFDB0024F66EFE0E1020F76E0900F5CF15F00922
:10EFEB0000F5CF16F00A00F5CF17F0000E126E03E6
:10EFFB000E116E000E046E0A0E036E2A50016E0285
:10F00B006A01BE0206FDEC60F001C00FF002C010F9
:10F01B00F094EC5FF0780E0F24F66EFE0E1020F7D6
:10F02B006E0900F5CF18F00900F5CF19F00A00F5BD
:10F03B00CF1AF08BEC65F0A6D7120000D02A500344
:10F04B000D780EF324F66EFE0EF420F76E0900F524
:10F05B00CF24F00900F5CF25F00A00F5CF26F012EA
:10F06B00001200470E0001656F000E0001666FFC79
:10F07B00EF7EF0250E00017C19D8B40AD043C0D91D
:10F08B00FF44C0DAFF7CC0DFFF434A442AFCEF7E1B
:10F09B00F0000E0001796F000E786F000E00017406
:10F0AB006F000E736F06D000017385454A462A0127
:10F0BB00D00BD045C0F6FF46C0F7FF0800F5503027
:10F0CB000AD8B4F1D701D0F5D745C0F6FF46C0F743
:10F0DB00FF0800F5505EEC5FF0D8A038D0000E00B2
:10F0EB0001796F000E786F00D078C00FF079C010E7
:10F0FB00F0000E126E0A0E116E94EC5FF00FC078DA
:10F10B00F010C079F0D00E4F6EFF0E506E45C0F66A
:10F11B00FF46C0F7FF0800F550516E526A4F505131
:10F12B00265050522251500001782752500001793D
:10F13B0023454A462A45C0F6FF46C0F7FF0800F5AF
:10F14B00505EEC5FF0D8A002D0CFD700D045C0F610
:10F15B00FF46C0F7FF0800F5502E0AD8A434D000A4
:10F16B0001748D454A462A000E00017B6F000E7A12
:10F17B006F1ED07AC00FF07BC010F0000E126E0A1B
:10F18B000E116E94EC5FF045C0F6FF46C0F7FF081A
:10F19B0000F5500F26000E1022D00E0F2400017A1E
:10F1AB006FFF0E102000017B6F454A462A00D045A9
:10F1BB00C0F6FF46C0F7FF0800F5505EEC5FF0D8D5
:10F1CB00A0C2D0D7D7C0D0000E00017B6F000E7A43
:10F1DB006F00017489B8D00CEF7FF000017485CDFE
:10F1EB00D065C0D9FF66C0DAFFDECF63F0DDCF6438
:10F1FB00F0020E00016527000E662300016351002B
:10F20B00016411D8A407D0E50E0001636FFF0E0057
:10F21B0001646F00D0000E0001686F000E676F0471
:10F22B00D00001674B682B00D000016751000163D0
:10F23B00254F6E0001685100016421506E4FC0F6DE
:10F24B00FF50C0F7FFF86A0E0EF76403D00800F505
:10F25B005005D0F6CFE9FFF7CFEAFFEF500009D802
:10F26B00A4DFD700017A5100017B11D8B40FD00075
:10F27B0001675100017A5D0001685100017B59D88B
:10F28B00B005D07AC067F07BC068F000D000017881
:10F29B00510001675D0001795100016859D8B0092F
:10F2AB00D0000167510001785F00016851000179BE
:10F2BB005B0FD0000E0001796F000E786F09D04301
:10F2CB00C0D9FF44C0DAFF200EDF6E434A442A0048
:10F2DB00D000017807D8A0790700017829F0E10068
:10F2EB00017929D8B41DD0EBD71BD063C0F6FF64CE
:10F2FB00C0F7FFF86A43C0D9FF44C0DAFF0E0EF720
:10F30B006403D00800F55005D0F6CFE9FFF7CFEA3C
:10F31B00FFEF50DF6E0001634B642B434A442A001E
:10F32B00D000016707D8A0680700016729DEE1005C
:10F33B00016829D8B4FCEF7EF0D8D7FCEF7EF0C083
:10F34B000E000173131AD045C0F6FF46C0F7FF45F8
:10F35B004A462A0800F5CF7CF000017C51000AD800
:10F36B00B40CEF7FF0660AD8B438D7150AD8B43886
:10F37B00D7060AD8B4E4D7FCEF7EF0070E00017471
:10F38B0015D8B4B0D3000174A906D0000E00017BD0
:10F39B006F060E7A6F00D065C0D9FF66C0DAFFDE4C
:10F3AB00CF75F0DECF76F0DDCF77F0030E00016581
:10F3BB0027000E6623000177AF12D075C001F076DF
:10F3CB00C002F077C003F06FEC5FF001C075F00284
:10F3DB00C076F003C077F0030E0001731300D0006A
:10F3EB000E0001726F000E716F00017551000176F6
:10F3FB001100017711D8B48DD0820E4F6EFF0E50D5
:10F40B006E75C051F076C052F077C053F078C0548F
:10F41B00F0100E05D0D8905432533252325132E89C
:10F42B002EF9D751504F240001716F000E50200060
:10F43B0001726F00017107D8A0720771C00FF072D3
:10F44B00C010F0000E126E030E116E94EC5FF00FF5
:10F45B00C071F010C072F071C007F072C008F000FC
:10F46B000E0A6E0A0E096E60EC62F007C071F008AE
:10F47B00C072F0000172AF05D000017107D8A07205
:10F48B000700D000017151000838EC76F024C06DF4
:10F49B00F025C06EF026C06FF06DC015F06EC01673
:10F4AB00F06FC017F075C018F076C019F077C01A5E
:10F4BB00F08BEC65F015C06DF016C06EF017C06FD9
:10F4CB00F06DC03AF06EC03BF06FC03CF0000E3DEB
:10F4DB006E800E3E6E3F0E3F6E15EC62F0D8B0059F
:10F4EB00D000017107D8A0720714D06DC03AF06E2E
:10F4FB00C03BF06FC03CF0000E3D6E200E3E6E41E7
:10F50B000E3F6E15EC62F0D8A004D00001714B7267
:10F51B002B00D000017BBF08D000017B511EE10DF9
:10F52B000E00017A5DD8B019D075C02EF076C02FC1
:10F53B00F077C030F000017A5128EC6FF024C03125
:10F54B00F025C032F026C033F046EC6EF02EC075BD
:10F55B00F02FC076F030C077F000D0000172BF08FA
:10F56B00D00001725128E10A0E0001715DD8B02361
:10F57B00D0000175510001761100017711D8B477D5
:10F58B00D075C02BF076C02CF077C02DF00AEC654F
:10F59B00F02B502C102D102E10D8A469D000017216
:10F5AB00BF66D00001725107E1020E0001715DD8F8
:10F5BB00B002D05DD000D06DC03AF06EC03BF06FA2
:10F5CB00C03CF0700E3D6E890E3E6E400E3F6E15C8
:10F5DB00EC62F0D8B003D00001F70E02D00001F8B6
:10F5EB000E7127FF0E722300D00001715138EC769B
:10F5FB00F024C06DF025C06EF026C06FF017D075EB
:10F60B00C001F076C002F077C003F06DC004F06E5D
:10F61B00C005F06FC006F078EC69F001C069F0022C
:10F62B00C06AF003C06BF004C06CF017D075C0015A
:10F63B00F076C002F077C003F06DC004F06EC00529
:10F64B00F06FC006F012EC6AF001C069F002C06AFC
:10F65B00F003C06BF004C06CF000D0000E0001751D
:10F66B006F000E0001766F000E0001776F34D075BE
:10F67B00C02BF076C02CF077C02DF00AEC65F02B88
:10F68B00C069F02CC06AF02DC06BF02EC06CF07509
:10F69B00C03AF076C03BF077C03CF069C009F06A25
:10F6AB00C00AF06BC00BF06CC00CF01FEC60F009E3
:10F6BB00C03DF00AC03EF00BC03FF0FDEC5FF03AEE
:10F6CB00C075F03BC076F03CC077F0000E000172C5
:10F6DB006F000E716F00D0010E00017C6F0A0E00DF
:10F6EB00017C19D8B422D001D020D000017C510468
:10F6FB000D290EF324F66EFE0EF420F76E0900F5BD
:10F70B00500001695D0900F55000016A590900F5C7
:10F71B005000016B590900F55000016C59D8A00538
:10F72B00D001D003D000017C2BD9D77CC04FF05037
:10F73B006A4FBE500600017A514F2600017B515093
:10F74B0022000171514F260001725150224F50007F
:10F75B0001785F50500001795B00017A5100017B09
:10F76B0011D8B405D000017807D8A0790700D003D1
:10F77B000E000173154F6E000E00017415506E4F85
:10F78B00505010D8B405D000017807D8A0790700E5
:10F79B00D0000173A53CD0030E000173154F6E0012
:10F7AB000E00017415506E4F505010D8B416D04344
:10F7BB00C0D9FF44C0DAFF2D0EDF6E434A442A0D39
:10F7CB00D043C0D9FF44C0DAFF300EDF6E434A444A
:10F7DB002A00017807D8A0790700D0000179BF80F3
:10F7EB00D000017951EDE100017805D8A079D0E87E
:10F7FB00D777D00DD043C0D9FF44C0DAFF200EDF3E
:10F80B006E434A442A00017807D8A0790700D0003C
:10F81B000179BF07D000017951EDE100017805D8DE
:10F82B00B0E9D7030E000173154F6E000E00017483
:10F83B0015506E4F505010D8B453D043C0D9FF441D
:10F84B00C0DAFF2D0E4BD0434A442A4AD069C0017F
:10F85B00F06AC002F06BC003F06CC004F000017CD6
:10F86B0051040D290EF324F66EFE0EF420F76E09EB
:10F87B0000F5CF05F00900F5CF06F00900F5CF072D
:10F88B00F00A00F5CF08F03EEC61F001C06DF0021C
:10F89B00C06EF003C06FF004C070F06DC00EF06E60
:10F8AB00C00FF06FC010F070C011F00A0E126E0096
:10F8BB000E136E000E146E000E156E86EC60F00EBD
:10F8CB00C06DF00FC06EF010C06FF011C070F00083
:10F8DB00016D51300F43C0D9FF44C0DAFFDF6EB367
:10F8EB00D700017C0700017C29D8B40FD0AFD70D0E
:10F8FB00D043C0D9FF44C0DAFF300EDF6E434A4419
:10F90B002A00017107D8A0720700D0000172BF074F
:10F91B00D000017251EDE100017105D8B0E9D700BB
:10F92B00017BBF0CD000017B5105E1090E00017A70
:10F93B005DD8A004D0080E00017C6F03D07AC07C88
:10F94B00F000D000017C5100017A5F000E00017CB9
:10F95B00BFFF0E00017B5B00017C510001D8B40995
:10F96B00D043C0D9FF44C0DAFF2E0EDF6E434A44AA
:10F97B002A00D000017C5138EC76F024C060F025D1
:10F98B00C061F026C062F075C018F076C019F07730
:10F99B00C01AF060C015F061C016F062C017F08B92
:10F9AB00EC65F015C02BF016C02CF017C02DF00A2B
:10F9BB00EC65F02BC069F02CC06AF02DC06BF02EFB
:10F9CB00C06CF073D069C001F06AC002F06BC00369
:10F9DB00F06CC004F000017C51040D290EF324F6E9
:10F9EB006EFE0EF420F76E0900F5CF05F00900F559
:10F9FB00CF06F00900F5CF07F00A00F5CF08F03E6F
:10FA0B00EC61F001C06DF002C06EF003C06FF0044A
:10FA1B00C070F06DC00EF06EC00FF06FC010F070C4
:10FA2B00C011F00A0E126E000E136E000E146E0053
:10FA3B000E156E86EC60F00EC06DF00FC06EF01000
:10FA4B00C06FF011C070F000016D51300F43C0D981
:10FA5B00FF44C0DAFFDF6E434A442A69C00EF06AE6
:10FA6B00C00FF06BC010F06CC011F000017C5104A2
:10FA7B000D290EF324F66EFE0EF420F76E0900F539
:10FA8B00CF12F00900F5CF13F00900F5CF14F00AEF
:10FA9B0000F5CF15F086EC60F00EC069F00FC06A70
:10FAAB00F010C06BF011C06CF000D000017C0700AF
:10FABB00017C29D8B40FD086D70DD043C0D9FF44D1
:10FACB00C0DAFF300EDF6E434A442A00017A07D8B2
:10FADB00A07B0700D000017A5100017B11D8B486BE
:10FAEB00D1ECD784D165C0D9FF66C0DAFFDECF4F2A
:10FAFB00F0DDCF50F04FC069F050C06AF000016BE1
:10FB0B006B6C6B020E00016527000E662300017AF9
:10FB1B005100017B11D8A40ED00001695100016A7C
:10FB2B001100016B1100016C11D8A404D000017AF3
:10FB3B004B7B2B00D0010E00017C6F0A0E00017C69
:10FB4B0019D8B422D001D020D000017C51040D294A
:10FB5B000EF324F66EFE0EF420F76E0900F550003E
:10FB6B0001695D0900F55000016A590900F5500063
:10FB7B00016B590900F55000016C59D8A005D00153
:10FB8B00D003D000017C2BD9D7800E00017CBF7F26
:10FB9B000E4F6E00017A5100017C5D00017B51809C
:10FBAB000A4F58D8B003D07AC07CF017D000017B35
:10FBBB0051800A4F6E00017C5100017A5D800E006E
:10FBCB00017CBF7F0E4F58D8B008D000017C51008C
:10FBDB00017A6F7B6B7ABF7B0700D00001785100F5
:10FBEB00017911D8B411D0030E000173154F6E00BB
:10FBFB000E00017415506E4F505010D8B405D00044
:10FC0B00017807D8A0790700D0000174AD1DD00092
:10FC1B0001785100017A5D00017B51800A4F6E0023
:10FC2B00017951800A4F58D8B009D000017A5100A0
:10FC3B0001785F00017B510001795B06D0000E005B
:10FC4B0001796F000E786F00D0800E00017CBF7FB2
:10FC5B000E4F6E0001785100017C5D0001795180DF
:10FC6B000A4F58D8B00BD000017C510001785F00CF
:10FC7B000E00017CBFFF0E0001795B06D0000E0069
:10FC8B0001796F000E786F00D0000173A52FD003A0
:10FC9B000E000173154F6E000E00017415506E4F60
:10FCAB00505010D8B409D043C0D9FF44C0DAFF2D4F
:10FCBB000EDF6E434A442A00D000017851000179CF
:10FCCB0011D8B487D043C0D9FF44C0DAFF300EDF60
:10FCDB006E434A442A00017807D8A07907000178BF
:10FCEB005100017911D8B475D0EDD773D0000178DC
:10FCFB005100017911D8B414D043C0D9FF44C0DAF4
:10FD0B00FF200EDF6E434A442A00017807D8A07902
:10FD1B00070001785100017911D8B402D0EDD7005A
:10FD2B00D0030E000173154F6E000E0001741550B9
:10FD3B006E4F505010D8B44DD043C0D9FF44C0DAE9
:10FD4B00FF2D0EDF6E43D045D07AC04FF07BC050F5
:10FD5B00F0D8904F365036D8904F365036290E4F3C
:10FD6B0024F66EFE0E5020F76E0900F5CF05F00954
:10FD7B0000F5CF06F00900F5CF07F00A00F5CF0824
:10FD8B00F069C001F06AC002F06BC003F06CC004F4
:10FD9B00F03EEC61F001C00EF002C00FF003C0109A
:10FDAB00F004C011F00A0E126E000E136E000E144A
:10FDBB006E000E156E86EC60F00E50300F00017C5D
:10FDCB006F43C0D9FF44C0DAFF7CC0DFFF434A4416
:10FDDB002A00D000017A07D8A07B0700017A29B44A
:10FDEB00E100017B29D8B402D0AFD700D045C0F6D3
:10FDFB00FF46C0F7FF454A462A0800F5CF7CF000C6
:10FE0B00017C51D8B403D03FEF78F000D043C0D978
:10FE1B00FF44C0DAFF000EDF6E120012000001007B
:10FE2B0000000A00000064000000E8030000102737
:10FE3B000000A086010040420F008096980000E170
:10FE4B00F50500CA9A3B00803FCDCC3DD7233C1231
:10FE5B00833AB7D138C62737388635C0D633CC2B43
:10FE6B0032708930E7DB2EE53C1E42A20D00803F4D
:10FE7B0000204100C842007A44401C4650C347242E
:10FE8B00744997184BBCBE4C6B6E4E03155079AD35
:10FE9B0060F3497156696472696572613A25303253
:10FEAB00753A253032752D253032753A253032753D
:10FEBB00004D696572636F6C657320253032752F49
:10FECB00253032752F2530327500446F6D696E67A2
:10FEDB006F20253032752F253032752F2530327536
:10FEEB0000566965726E657320253032752F25308B
:10FEFB0032752F253032750053616261646F202596
:10FF0B003032752F253032752F25303275004D610B
:10FF1B007274657320253032752F253032752F257D
:10FF2B00303275004A756576657320253032752F32
:10FF3B00253032752F25303275004C756E65732068
:10FF4B00253032752F253032752F25303275004311
:10FF5B004F4E464947555241522053484F505049F6
:10FF6B004E4700253032753A253032753A253032FE
:10FF7B0075200054656D7050726F3A2530327520C4
:10FF8B00004D65643A25322E316620005361626163
:10FF9B00646F202020004D61727465732020200057
:10FFAB004A756576657320202000446F6D696E6716
:10FFBB006F202000566965726E65732020004D69B5
:10FFCB006572636F6C6573004C756E6573202020D2
:10FFDB0000496E766965726E6F00286E756C6C29C0
:0DFFEB0000566572616E6F002573200000E6
:08FFF800AEF718FFF3F8FFF16A
:020000040001F9
:01000000FF00
:00000001FF
